:03020000020206F1
:03025F0002020395
:03020300022405CD
:0400000002020032C6
:01000B0032C2
:0100130032BA
:01001B0032B2
:0100230032AA
:01002B0032A2
:01003300329A
:01003B003292
:01004300328A
:01004B003282
:01005300327A
:01005B003272
:01006300326A
:0101000032CC
:0101040032C8
:0101080032C4
:01010C0032C0
:0101100032BC
:0101140032B8
:0101180032B4
:0101200032AC
:0101240032A8
:0101280032A4
:01012C0032A0
:01013000329C
:010134003298
:010138003294
:01013C003290
:01014000328C
:010148003284
:01014C003280
:01015000327C
:010154003278
:010158003274
:01015C003270
:01016000326C
:01017000325C
:010174003258
:010178003254
:01017C003250
:01018000324C
:010184003248
:010188003244
:01018C003240
:01019000323C
:010194003238
:010198003234
:01019C003230
:0101A000322C
:0101A8003224
:0101AC003220
:0101B000321C
:0101B4003218
:0101B8003214
:2002620022AE82AF837C007D00C3EC9EED9F50147AB07B041ABAFF011BEA4B70F70CBC00C6
:20028200E80D80E522AE82AF837C007D00C3EC9EED9F50147A0A7B001ABAFF011BEA4B70B5
:2002A200F70CBC00E80D80E52275AF0790E67BE090E67CF0DAF3222290E6BAE0F590D28625
:2002C2000000C2862290E68BE0FE7F007C007D00C3EC9EED64808FF063F08095F0501DEC0D
:2002E2002440F582ED34E7F583E0F590A282B39200928200000CBC00D70D80D422AFB07EC0
:2003020000C3EE9F5019A283B392019283EE2440F582E434E7F583E5B0F000000E80E290DD
:20032200E68AE4F090E68BEFF0903A6AE4F0E4A3F02290E740E5A0F090E68AE4F090E68BF5
:200342007401F0220202C7D2841202C7C28422D2871202C7C287227F00BFFF00500B90E603
:2003620078E0FE20E0030F80F090E678E0FF20E204EF20E10B90E678E04440F07582012279
:20038200758200227F00BFFF00500B90E678E0FE20E0030F80F090E678E0FF30E20B90E6FC
:2003A20078E04440F075820122758200227F0090E678E0FE20E204758200220FBFFF0040C5
:2003C200EE758201227F0090E678E0FE20E604758200220FBFFF0040EE75820122AF82C39C
:2003E200E49508E433FE90E678E04480F0C007C0061203AFD006D00790E679EFF0C007C090
:2004020006120359E582D006D0077012E509600A90E678E04440F01203C775820022EE60F3
:200422001090000AC007C006120287D006D00780B5E509600890E678E0FF4440F075820177
:2004420022AE82AF837D00E50C7003F582227508647509007582A2C007C006C0051203DF5E
:20046200E582D005D006D007600302054AAC0B90E679ECF0C007C006C005120359E582D064
:2004820005D006D007600302054A90E679E50AF0C007C006C005120359E582D005D006D084
:2004A20007600302054A90E678E04440F0C007C006C0051203C790E678E04480F01203AFC9
:2004C20090E67974A3F0120359E582D005D006D007707590E679E08E828F83F0C007C0067A
:2004E200C005120386E582D005D006D0077059FCC3EC950C502A90E679E08E828F83F0A39E
:20050200AE82AF83C007C006C005C004120386E582D004D005D006D007702D0C8C0580D07F
:2005220090E678E04420F090E679E0C005120386E582D005701290E678E04440F090E67979
:20054200E0C0051203C7D0058D8222AE82AF837D007508647509007582A2C007C006C005E9
:200562001203DFE582D005D006D0076003020608AC0E90E679ECF0C007C006C005120359E4
:20058200E582D005D006D007600302060890E679E50DF0C007C006C005120359E582D00530
:2005A200D006D0077060FCC3EC950F504B8E828F83E090E679F08E828F83E0FBA3AE82AF72
:2005C20083903A46E0FAEB2AF0903A44E0FAA3E0FB903A4474012AF0E43BA3F0C007C00665
:2005E200C005C004120359E582D004D005D006D00770130C8C0580AF90E678E04440F0C0F4
:20060200051203C7D0058D8222903A6CE0FF903A42E0F50AA3E0F50B8F0C90E740C0071243
:200622000443AE82D0077D00903A42E0FBA3E0FC903A42EF2BF0ED3CA3F08E8222AF8290C2
:200642003A42E0F50DA3E0F50E8F0F90E740C00712054DD0077E00903A42E0FCA3E0FD90E7
:200662003A42EF2CF0EE3DA3F022AA82D2A600C2A6DAF922A2B0D2A633C2A6A2B0D2A633AE
:20068200C2A6A2B0D2A633C2A6A2B0D2A633C2A6A2B0D2A633C2A6A2B0D2A633C2A6A2B00A
:2006A200D2A633C2A6A2B0D2A633C2A6F5822275820022AA11A2B0D2A633C2A6A2B0D2A624
:2006C20033C2A6A2B0D2A633C2A6A2B0D2A633C2A6A2B0D2A633C2A6A2B0D2A633C2A6A247
:2006E200B0D2A633C2A6A2B0D2A633C2A6F0A3DAC422E5823392A7D2A633C2A692A7D2A6E6
:2007020033C2A692A7D2A633C2A692A7D2A633C2A692A7D2A633C2A692A7D2A633C2A6927A
:20072200A7D2A633C2A692A7D2A600C2A622AA11E03392A7D2A633C2A692A7D2A633C2A65C
:2007420092A7D2A633C2A692A7D2A633C2A692A7D2A633C2A692A7D2A633C2A692A7D2A6B6
:2007620033C2A692A7D2A6A3C2A6DAC422903A4E7403F043A0807E007F00C007C0061206DC
:2007820076AD82D006D007BDFF0280208E028F037C007D00C3EA94FFEB94FFEC9400ED64FD
:2007A20080948050070EBE00D10F80CEE5B030E009903A4EE4F0758200227582012243A0A2
:2007C2002075820812066CAFA074DF5FF5A002076F43A08075820812066C43A0207582087E
:2007E20002066C43A0807A55120676E58230E702DAF6903A50F0F582227582002243A08054
:200802007E007F00C007C006120676AD82D006D007BDFE02800D0EBE00010FEE4F70E575B5
:2008220082012275820022AC82AD83AEF0FFE5A020E50475820422C007C006C005C004122A
:2008420007C0E582D004D005D006D00760071207D375820322758208C007C006C005C0048E
:2008620012066CD004D005D006D007903A4F7412F0903A527452F0903A51E0FB7028EC2C95
:20088200FCED33FDEE33FEEF33FF8E03903A53EBF08D03903A54EBF08C03903A55EBF090D2
:2008A2003A56E4F0801A8F03903A53EBF08E03903A54EBF08D03903A55EBF0903A56ECF09E
:2008C200903A577401F0751106903A521207301207E5903A50E0FF60071207D3758201223B
:2008E2001207FFE58260071207D3758202227582002275821012066C1207FFE5826007126D
:2009020007D37582022275820022AE82AF83C374209EE49F5018758200C007C00612066C7D
:20092200D006D007EE24E0FEEF34FFFF80E0EE4F600AEEC40354F8F58212066C75821012DB
:20094200066C75820812066C903A4F740CF0903A52744CF0903A53E4F0903A54F0903A552D
:20096200F0903A56F0903A577401F0751106903A521207301207E575820812066C0207D3A1
:20098200AC82AD83AEF0FFE5A020E50475820422C007C006C005C0041207C0E582D004D0B5
:2009A20005D006D00760071207D375820322758208C007C006C005C00412066CD004D005D2
:2009C200D006D007903A4F7419F0903A527459F0903A51E0FB7028EC2CFCED33FDEE33FE1B
:2009E200EF33FF8E03903A53EBF08D03903A54EBF08C03903A55EBF0903A56E4F0801A8F1C
:200A020003903A53EBF08E03903A54EBF08D03903A55EBF0903A56ECF0903A577401F075CE
:200A22001106903A521207301207E5903A50E0FF60071207D37582012243A0807582081260
:200A4200066C7582FC1206F475820022AE82AF83ADA0747F5DF5A0C374209EE49F50187521
:200A62008200C007C00612066CD006D007EE24E0FEEF34FFFF80E0EE4F600AEEC40354F81B
:200A8200F58212066C43A08075821012066C120676E582540FFFBF05028048903A4E7406F4
:200AA200F075820812066C903A4F740CF0903A52744CF0903A53E4F0903A54F0903A55F05E
:200AC200903A56F0903A577401F0751106903A521207301207E575820812066C1207D375AB
:200AE2008206227582002212076F7582FD1206F475820812066C0207D312076F7582FC02CD
:200B020006F4903A477401F0903A48E4F07402A3F0903A51E4F043B4E0AFB574FE5FF5B5CF
:200B220043A08043A02075820012066C1207C0903A4E7403F075820812066C903A4FE4F00A
:200B4200903A527440F0903A53E4F0903A54F0903A55F0903A56F0903A577495F07511060F
:200B6200903A521207301207E5903A50E0FF7E0054FE7003EE604B90003212026375820803
:200B820012066C903A4FE4F0903A527440F0903A53E4F0903A54F0903A55F0903A56F09074
:200BA2003A577495F0751106903A521207301207E5903A50E0FF7E0054FE7003EE6003022B
:200BC2000FAA75820812066C903A4F7408F0903A527448F0903A53E4F0903A54F0903A556C
:200BE2007401F0903A5674AAF0903A577487F0751106903A521207301207E5903A50E0FF6C
:200C020020E235EF54FE6003020FAA751104903A521206B5903A54E0FF53070FBF010A9009
:200C22003A55E0FFBFAA028009903A4E7407F0020FB0903A517401F0903A51E0FF600274BC
:200C420040FF758208C00712066C903A4F7437F0903A527477F0903A53E4F0903A54F090CF
:200C62003A55F0903A56F0903A577401F0751106903A521207301207E5D007903A50E0FE9F
:200C820054FE703E758208C00712066CD007903A4F7429F0903A527469F0903A53EFF09016
:200CA2003A54E4F0903A55F0903A56F0903A577401F0751106903A52C0071207301207E575
:200CC200D007903A50E0FE5306FE7D00903A50E0FCBC0003020DCEBDFF004003020DCE9071
:200CE2000004C007C006C005120263D005D006D007EE6051758208C007C006C00512066C2F
:200D0200D005D006D007903A4F7401F0903A527441F0903A53EFF0903A54E4F0903A55F013
:200D2200903A56F0903A5774FFF0751106903A52C007C006C0051207301207E5D005D00631
:200D4200D007020DCA758208C007C006C00512066C903A4F7437F0903A527477F0903A5344
:200D6200E4F0903A54F0903A55F0903A56F0903A577401F0751106903A521207301207E5FB
:200D820075820812066CD005D006D007903A4F7429F0903A527469F0903A53EFF0903A54A3
:200DA200E4F0903A55F0903A56F0903A577401F0751106903A52C007C006C0051207301263
:200DC20007E5D005D006D0070D020CCE903A50E0FF6003020FAA903A51E0FF6055758208F5
:200DE20012066C903A4F743AF0903A52747AF0903A53E4F0903A54F0903A55F0903A56F09E
:200E0200903A577401F0751106903A521207301207E5903A50E0FF6003020FAA751104902A
:200E22003A521206B5903A52E0FF20E605903A51E4F075820812066C903A4F7409F0903A8F
:200E4200527449F0903A53E4F0903A54F0903A55F0903A56F0903A577401F0751106903A97
:200E6200521207301207E51207FFE5826009903A4E7402F0020FB0751110903A521206B531
:200E820075821012066C903A52E054C0FFF0E0FEEF54C06003020F1C903A57E0FF53070FEC
:200EA200903A5CE0235401FD903A5BE0540325E04D2F24F9FF903A5AE023235403FD903A54
:200EC20059E0FCE4CC25E0CC33CC25E0CC33FB7A00ED4204EA4203903A58E05403FD2D25D8
:200EE200E0FAE4FD4204EA42030CBC00010BEB3395E0FDFA8FF005F0800CEC2CFCEB33FB35
:200F0200ED33FDEA33FAD5F0F1903A4AECF0EBA3F0EDA3F0EAA3F0020FA25306C0BE407838
:200F2200903A59E0FF53073F7E008E048F057E007F00903A5AE0FA7B008B00EAF93395E0E4
:200F4200FAFBE84207E94206EA4205EB4204903A5BE0F8E4F9FAFBE84207E94206EA420574
:200F6200EB42040FBF00090EBE00050DBD00010CEE2ECD33CD25E0CD33FCEF2F25E0FEEFC5
:200F8200232354034DFD7F00903A4AEFF0EEA3F0EDA3F0ECA3F08008903A4E7407F0800EDD
:200FA200903A4EE4F00207D3903A4E7401F0903A47E4F00207D3903A62E0FF6050903A6242
:200FC200E4F01207FFE5826044903A4E7402F075820812066C903A4F740CF0903A52744CB2
:200FE200F0903A53E4F0903A54F0903A55F0903A56F0903A577401F0751106903A5212079A
:20100200301207E575820812066C0207D3903A6CE0F51190E7401206B5903A6AE0FEA3E00C
:20102200FF4E704475821012066C75820812066C903A4F740CF0903A52744CF0903A53E449
:20104200F0903A54F0903A55F0903A56F0903A577401F0751106903A521207301207E57587
:20106200820812066C0207D3EE7004EF30E0012275821012066C903A627401F022903A6296
:20108200E0FF600E903A62E4F012076F7582FC1206F4903A6CE0F51190E740120730903A94
:2010A2006AE0FEA3E0FFEE7004EF30E0012243A08075821012066C120676E582540FFFBFDC
:2010C20005028044903A4E7406F075820812066C903A4F740CF0903A52744CF0903A53E4E8
:2010E200F0903A54F0903A55F0903A56F0903A577401F0751106903A521207301207E575E7
:20110200820812066C1207D3903A6AE0FEA3E0FF4E6007903A627401F02212076F7582FD5B
:201122001206F475820812066C0207D3AF8290E6017480F00000000090E670E4F090E67115
:20114200F075B2FA74804FF58090000AC007120263D007AEB474F75EF5B474024FF5807E89
:20116200007F002080208E028F037C007D00C3EA94FFEB94FFEC9400ED6480948050070E8B
:20118200BE00E00F80DD3080047FC880027F64903A68EFF0903A64E4F0E4A3F0E4A3F0E4FE
:2011A200A3F0903A63E4F02275822002112E75826002112E0211AA903A00E4F0E4A3F07540
:2011C200B3FF75B2FCE5B2F4FF5280D28500C285223080047F1480027F0A903A68E0FEEFCB
:2011E2002EF07F00D283C2830FBF400040F6D287D283C283D283C283D283C283D283C283B1
:2012020053B2053080047F0280027F01903A68E0FEEF2EF0308105D2811211B9D28143B241
:20122200022285B51075B5FF903A6CE0FE903A64E0FAA3E0FBA3E0FCA3E0FD8E0079007EF7
:20124200007F00903A64E82AF0E93BA3F0EE3CA3F0EF3DA3F090E68BE06022FA759B407588
:201262009AE775AF07903A63E0F990E67BE0F5B0D28329F9C283DAF5903A63E9F08510B569
:2012820090E68BE0FFBF400050030211D322C0B575B500AD82AE83903A64E0F9A3E0FAA3EC
:2012A200E0FBA3E0FC903A64ED29F0EE3AA3F074003BA3F074003CA3F0BD0006BE0003D00A
:2012C200B522D283D2A6C283C2A6D283D2A6C283C2A6D283D2A6C283C2A6D283D2A6C283B5
:2012E200C2A6D283D2A6C283C2A6D283D2A6C283C2A6D283D2A6C283C2A6D283D2A6C28304
:20130200C2A61DBDFFB31E80B022E582FF7013AFB274FD5FF5B2308109D28143B2027582AB
:2013220001221211B0900000E4F5F0120829E5826004758202227E007F00C3EE9408EF9466
:20134200005025C007C006120676AD82D006D007EE240EF582EF3424F583E493FCEDB504B0
:20136200070EBE00D50F80D2BE0805BF00028018903A48E0FCA3E0FDECC39EF582ED9FF58B
:201382008312090C75820322120676AE827F00C007C006120676AD82D006D0078D04E4429A
:2013A20006EC4207C007C006120676AC827D00C005C004120676AB82D004D0058B02E4428A
:2013C20004EA4205903A48E0FAA3E0FBEA24F4F582EB34FFF583C005C00412090CD004D009
:2013E20005D006D007EE4F700475820322900001E4F5F0C007C006C005C004120829E58252
:20140200D004D005D006D0076004758202227A017B00C3EA9EEB9F5039903A48E0F8A3E034
:20142200F988828983C007C006C005C004C003C0021212901208F4E582D002D003D004D08E
:2014420005D006D0076004758202220ABA00C30B80C08C828D83C005C004121290D004D088
:2014620005903A48E0FEA3E0FFEEC39CF582EF9DF58312090C1211D3AFB274FD5FF5B23006
:201482008109D28143B20275820022D28143B20275820422900000E4F5F01208297F00BF1C
:2014A20008005016C007120676AE82D007EF90240E93FDEEB505030F80E5BF0802801A7E1F
:2014C20000903A48E0FCA3E0FDECC39FF582ED9EF58312090C90000022120676AF82C00775
:2014E200120676AE82903A48E0FCA3E0FDEC24F6F582ED34FFF583C00612090CD006D0070F
:201502008E05E4FEFCEF4206EC42058E828D83A322903A47E0FF7007903A697402F0227572
:20152200820012130CAF82903A69EFF0BF01030211B9BF040C75820012130CE582903A6993
:02154200F02295
:20006C0028015A5445580A0C00000001070000000000000000000000000000000000303082
:08008C003030303030303030EC
:201544002290E683E4F090E6837420F07410F07430F07401F090E6837421F07411F0743116
:20156400F022AF82E51224E0500375121F90E6BFE0701090E6BEE0FEC39512500690E6BE95
:20158400E0F51275AF078F9B85119A7E407FE7EE04F59E7E407FE70EBE00010F8F9D90E690
:2015A4007C7403F07F00C3EF9512501190E67BE0FE90E67CF090E67CE4F00F80E9E5120421
:2015C40025E0FF90E740F090E7417403F090E68AE4F090E68BEFF022903A6AE0FEA3E0FFD3
:2015E400C374409EE49F50067C407D0080048E048F05903A6CECF07D00903A6AEEC39CF016
:20160400EF9DA3F022903A6FE0FF6021BF02028022BF04028020BF310302173BBF320122C7
:20162400BF39028014BF4202803402173E30A1FD0202BA0202BA0202BA903A46E4F0903A54
:2016440044F0E4A3F090E6BBE0FE7F0090E6BAE0FD7C00903A42ED4FF0EC4EA3F022E5A018
:2016640020E516903A4E7404F090E6A0E04401F0903A6AE4F0E4A3F0221207C0E58260134C
:201684001207D390E6A0E04401F0903A6AE4F0E4A3F02275820812066C903A4F7419F090E5
:2016A4003A527459F0903A51E0FF7023C390E6BAE0903A5533F090E6BBE0903A5433F09059
:2016C400E6BCE0903A5333F0903A56E4F0802190E6BDE0903A53F090E6BCE0903A54F090DF
:2016E400E6BBE0903A55F090E6BAE0FF903A56F0903A577401F0751106903A5212073012AE
:2017040007E5903A50E0FF6019903A4E7401F01207D390E6A0E04401F0903A6AE4F0E4A344
:20172400F02243A08075820812066C7582FC1206F4903A62E4F0220211B690E6A0E0440188
:20174400F022C021C0E0C0F0C082C083C007C006C005C004C003C002C001C000C0D075D0CC
:201764000090E6B9E0FF903A6FF090E6B57401F090E6B9E0FF24F35003021B13EFF5F024FE
:201784000B83F582E5F0241183F583E473AB5F13DC131374A5A7B8BDCED317181B181B1B57
:2017A400191A1A1A1A1A1A90E6B8E0FFBF8002800DBF8102801EBF8202802F021B1390E71C
:2017C40040E4F090E741F090E68AF090E68B7402F0021B1390E740E4F090E741F090E68A8F
:2017E400F090E68B7402F0021B1390E6BCE0FF600FBF01028019BF80028005BF812F801EB0
:2018040090E6A0E0FF53070190E740EFF0803A90E6A1E0FF53070190E740EFF0802B90E61C
:20182400A2E0FF53070190E740EFF0801C90E6BCE0C31314540324A3F582E434E6F583E0AF
:20184400FF53070190E740EFF090E741E4F090E68AF090E68B7402F0021B1390E6B8E0FF74
:20186400BF02028003021B1390E6BAE06003021B1390E6BCE0FF600FBF01028015BF800233
:201884008005BF8123801690E6A0E0FF54FEF0021B1390E6A1E0FF54FEF0021B1390E6A2DF
:2018A400E0FF54FEF0021B1390E6BCE0C31314540324A3FEE434E6FF90E6BCE0C31314546E
:2018C4000324A3F582E434E6F583E0FD5305FE8E828F83EDF0021B1390E6B8E0FFBF02021B
:2018E4008003021B1390E6BAE06003021B1390E6BCE0FF600FBF01028014BF80028005BF33
:201904008120801490E6A0E0FF4401F0804190E6A1E0FF4401F0803790E6A2E0FF4401F095
:20192400802D90E6BCE0C31314540324A3FEE434E6FF90E6BCE0C31314540324A3F582E46C
:2019440034E6F583E0FD4305FE8E828F83EDF090E6BCE05480C423541FFF90E6BCE0FE740C
:201964000F5E420790E683EFF074204FF0021B1390E6BBE0FFBF01028019BF02028028BF3D
:2019840003028053BF0603021A58BF0703021A6C021A9B7E367F248F0690E6B3EEF090E6BE
:2019A400B47436F0021B1390E680E0FF30E7147E527F248F0690E6B3EEF090E6B47452F0B6
:2019C400021B137E747F248F0690E6B3EEF090E6B47474F0021B1390E6BAE0FFBF0102801F
:2019E4000FBF0202801EBF0302802DBF0452803C7582167E167F248F068E11751205121506
:201A040066021B1375821B7E1B7F248F068E11751212121566021B1375828A7E8A7F008FBD
:201A2400068E1175120A121566021B1375822D7E2D7F248F068E11751208121566021B13BD
:201A44007E967F248F0690E6B3EEF090E6B47496F0021B137E487F248F0690E6B3EEF09046
:201A6400E6B47448F0021B1390E680E0FF30E7147E747F248F0690E6B3EEF090E6B47474A9
:201A8400F0021B137E527F248F0690E6B3EEF090E6B47452F0807890E6A0E0FF4401F08091
:201AA4006E806C90E740E4F090E68AF090E68B7401F0805B121545805690E740E4F090E6C9
:201AC4008AF090E68B7401F08045121545804090E6B8E0FFBF823890E6BCE0C31314540358
:201AE40075F002A42471F582743A35F0F583E4F0E4A3F090E685E090E740F090E684E0FFDA
:201B040090E741F090E68AE4F090E68B7402F090E6B8E0FFBF4003021E1CBFC0028003028D
:201B24001E4A90E6BFE0FE7F0090E6BEE0FD7C00903A6AED4FF0EC4EA3F01215DC90E6B9BB
:201B4400E0FFBF0102804CBF0302804DBF22028025BF3003021DC1BF38028043BF3A0280F2
:201B640067BF4003021C0BBF4103021C38BF4303021D39021E1290E6B5E4F090E68AF09068
:201B8400E68B7428F090E6B3E4F090E6B4746CF0021E4A1202FF021E4A120334021E4A9023
:201BA400E6BBE0FE7F0090E6BAE0FD7C00903A42ED4FF0EC4EA3F090E68AE4F012060BE5B9
:201BC4008290E68BF0021E4A903A44E0FEA3E090E740EEF0903A44E0A3E090E741F0903A3D
:201BE40046E090E742F07508007509017582A21203DFAF8290E743EFF090E68AE4F090E675
:201C04008B7404F0021E4A759B477E477F3A8F068E9A759E407E407FE78F068E9DC0027A5E
:201C2400081202ABD00290E68AE4F090E68B7408F0021E4AE5A020E519903A4E7404F090A9
:201C4400E6A0E0FF4401F0903A6AE4F0E4A3F0021E4A1207C0E58260161207D390E6A0E065
:201C6400FF4401F0903A6AE4F0E4A3F0021E4A75820812066C903A4F7412F0903A5274524F
:201C8400F0903A51E0FF7023C390E6BAE0903A5533F090E6BBE0903A5433F090E6BCE090BA
:201CA4003A5333F0903A56E4F0802190E6BDE0903A53F090E6BCE0903A54F090E6BBE090FA
:201CC4003A55F090E6BAE0FF903A56F0903A577401F0751106903A521207301207E5903A23
:201CE40050E0FF601C903A4E7401F01207D390E6A0E0FF4401F0903A6AE4F0E4A3F0021E03
:201D04004A903A627401F0120FB8903A4EE0FF601390E6A0E0FF4401F0903A6AE4F0E4A3E8
:201D2400F0021E4A90E68AE4F0903A6CE0FF90E68BF0021E4A759B4E7E4E7F3A8F068E9A61
:201D4400759E427E427FE78F068E9DC0027A141202ABD002740155B0FFE4BF00010490E7CB
:201D640056F01207C075820812066C903A4F740DF0903A52744DF0903A53E4F0903A54F067
:201D8400903A55F0903A56F0903A577401F0751106903A521207301207E5903A50E090E73A
:201DA40040F0120676AF8290E741EFF01207D390E68AE4F090E68B7417F0021E4A759B6380
:201DC4007E637F3A8F068E9A759E417E417FE78F068E9DC0027A071202ABD002AFB274FDC9
:201DE4005FF5B230810C90E740E4F0D28143B202800990E7407401F01211AA90E7487401A1
:201E0400F090E68AE4F090E68B7409F0803890E6A0E0FF4401F0802E90E6BFE0700690E6FB
:201E2400BEE0601A903A707401F090E68BE4F0AF9174EF5FF59190E65D7401F0801D12168D
:201E44000990E68BE4F0AF9174EF5FF59190E65D7401F090E6A0E0FF4480F0D0D0D000D0F7
:201E640001D002D003D004D005D006D007D083D082D0F0D0E0D02132C0E0C082C083C0073E
:201E8400C0D075D000AF9174EF5FF59190E65D7402F0D0D0D007D083D082D0E032C0E0C04A
:201EA40082C083C007C0D075D000AF9174EF5FF59190E65D7404F0D0D0D007D083D082D00E
:201EC400E032C0E0C082C083C007C0D075D000AF9174EF5FF59190E65D7408F0D0D0D007ED
:201EE400D083D082D0E032C0E0C082C083C007C0D075D000AF9174EF5FF59190E65D7410B7
:201F0400F0D0D0D007D083D082D0E032C0E0C082C083C007C0D075D000AF9174EF5FF59186
:201F240090E65D7420F0D0D0D007D083D082D0E032C0E0C082C083C007C0D075D000AF9147
:201F440074EF5FF59190E65D7440F0D0D0D007D083D082D0E032C021C0E0C0F0C082C0830A
:201F6400C007C006C005C004C003C002C001C000C0D075D000C2E81215DC903A6FE0FFBFE8
:201F84000103021FFEBF0303021FFEBF3002806ABF38028014BF3A028060BF4002805BBF58
:201FA40041028015BF434A805190E68AE4F012060BE58290E68BF08041903A6CE0FF602182
:201FC400903A4EE4F0120FB8903A4EE0FF601290E6A0E0FF4401F0903A6AE4F0E4A3F080A6
:201FE4001990E68AE4F0903A6CE0FF90E68BF0800990E68AE4F090E68BF0AF9174EF5FF5A5
:202004009190E65F7401F0D2E8D0D0D000D001D002D003D004D005D006D007D083D082D086
:20202400F0D0E0D02132C021C0E0C0F0C082C083C007C006C005C004C003C002C001C00007
:20204400C0D075D000C2E8903A70E0FF6020903A70E4F090E6BFE0FE7F0090E6BEE0FD7C37
:2020640000903A6AED4FF0EC4EA3F01216091215DC903A6FE0FF601EBF0202801EBF04023F
:20208400801EBF31028054BF3202804CBF39028014BF4247801A1203468040120349803B75
:2020A400120351803690E68BE0F58212063F802B903A6CE0FF6024903A4EE4F012107F90F0
:2020C4003A4EE0FF601590E6A0E0FF4401F0903A6AE4F0E4A3F0800312122490E68BE4F0D7
:2020E400AF9174EF5FF59190E65F7402F0903A6AE0FEA3E0FF4E700890E6A0E0FF4480F016
:20210400D2E8D0D0D000D001D002D003D004D005D006D007D083D082D0F0D0E0D02132C0CD
:20212400E0C082C083C007C0D075D000AF9174EF5FF59190E65F7404F0D0D0D007D083D03B
:2021440082D0E032C0E0C082C083C007C0D075D000AF9174EF5FF59190E65F7408F0D0D0ED
:20216400D007D083D082D0E032C0E0C082C083C007C0D075D000AF9174EF5FF59190E65FDF
:202184007410F0D0D0D007D083D082D0E032C0E0C082C083C007C0D075D000AF9174EF5F06
:2021A400F59190E65F7420F0D0D0D007D083D082D0E032C0E0C082C083C007C0D075D0007D
:2021C400AF9174EF5FF59190E65F7440F0D0D0D007D083D082D0E032C0E0C082C083C00710
:2021E400C0D075D000AF9174EF5FF59190E65F7480F0D0D0D007D083D082D0E03290E680D1
:20220400E04408F090E6007412F0900002120263AF8E74F85FF58ED28143B202903A69742D
:20222400FFF0C2AFC2E89000437402F09000447401F090004574B8F090E668E04408F090A3
:2022440001007402F07E467F178F05900101EDF0900102EEF09001047402F07E7C7F1E8F24
:2022640005900105EDF0900106EEF09001087402F07EA17F1E8F05900109EDF090010AEE1E
:20228400F090010C7402F07EC67F1E8F0590010DEDF090010EEEF09001107402F07EEB7FEB
:2022A4001E8F05900111EDF0900112EEF09001147402F07E107F1F8F05900115EDF0900189
:2022C40016EEF09001187402F07E357F1F8F05900119EDF090011AEEF09001207402F07E6D
:2022E4005A7F1F8F05900121EDF0900122EEF09001247402F07E2A7F208F05900125EDF0A5
:20230400900126EEF09001287402F07E237F218F05900129EDF090012AEEF090012C7402CD
:20232400F07E487F218F0590012DEDF090012EEEF09001307402F07E6D7F218F059001316F
:20234400EDF0900132EEF09001347402F07E927F218F05900135EDF0900136EEF09001387B
:202364007402F07EB77F218F05900139EDF090013AEEF090013C7402F07EDC7F218F0590E9
:20238400013DEDF090013EEEF0AF9174EF5FF59190E65D747FF090E65CE0FF447FF090E659
:2023A4005F74FFF090E65E74FFF0D2E8D2AF90E61174A0F00000000090E61074A0F00000D0
:2023C400000090E612E4F00000000090E613E4F00000000090E614E4F00000000090E61557
:2023E400E4F000000000120B0412151390E680E04482F090000A12026390E680E054F7F0FC
:062404002212220180FEFD
:20240E005A544558425301015A544558005553425F546573742055464D20312E313100644B
:20242E00656661756C74000012010002FFFFFF401A2200010000010203010A060002FFFF67
:20244E00FF40010009022000010104C0320904000002FFFFFF000705810200020007050161
:20246E0002000200000009022000010104C0320904000002FFFFFF00070581024000000745
:1B248E000501024000000000040300000000000000FF000000000000000000E5
:06023500E478FFF6D8FD9D
:20021300790FE94400601B7A0190249A786A75923AE493F2A308B800020592D9F4DAF2753C
:0202330092FF38
:20023B007800E84400600A790075923AE4F309D8FC786AE84400600C7901903A00E4F0A3F2
:04025B00D8FCD9FAF8
:0D02060075812112240AE5826003020203C3
:04240A0075820022B5
:00000001FF
